{
  "_format": "hh-sol-artifact-1",
  "contractName": "PresidentialElection",
  "sourceName": "contracts/PresidentialElection.sol",
  "abi": [
    {
      "inputs": [],
      "stateMutability": "nonpayable",
      "type": "constructor"
    },
    {
      "anonymous": false,
      "inputs": [
        {
          "indexed": false,
          "internalType": "string",
          "name": "name",
          "type": "string"
        }
      ],
      "name": "NewCandidateAdded",
      "type": "event"
    },
    {
      "anonymous": false,
      "inputs": [
        {
          "indexed": false,
          "internalType": "string",
          "name": "candidateName",
          "type": "string"
        },
        {
          "indexed": false,
          "internalType": "address",
          "name": "voter",
          "type": "address"
        }
      ],
      "name": "VoteCast",
      "type": "event"
    },
    {
      "inputs": [
        {
          "internalType": "string",
          "name": "_name",
          "type": "string"
        }
      ],
      "name": "addCandidate",
      "outputs": [],
      "stateMutability": "nonpayable",
      "type": "function"
    },
    {
      "inputs": [
        {
          "internalType": "uint256",
          "name": "",
          "type": "uint256"
        }
      ],
      "name": "candidates",
      "outputs": [
        {
          "internalType": "string",
          "name": "name",
          "type": "string"
        },
        {
          "internalType": "uint256",
          "name": "voteCount",
          "type": "uint256"
        },
        {
          "internalType": "bool",
          "name": "isActive",
          "type": "bool"
        }
      ],
      "stateMutability": "view",
      "type": "function"
    },
    {
      "inputs": [],
      "name": "getActiveCandidates",
      "outputs": [
        {
          "components": [
            {
              "internalType": "string",
              "name": "name",
              "type": "string"
            },
            {
              "internalType": "uint256",
              "name": "voteCount",
              "type": "uint256"
            },
            {
              "internalType": "bool",
              "name": "isActive",
              "type": "bool"
            }
          ],
          "internalType": "struct PresidentialElection.Candidate[]",
          "name": "",
          "type": "tuple[]"
        }
      ],
      "stateMutability": "view",
      "type": "function"
    },
    {
      "inputs": [],
      "name": "getCandidateCount",
      "outputs": [
        {
          "internalType": "uint256",
          "name": "",
          "type": "uint256"
        }
      ],
      "stateMutability": "view",
      "type": "function"
    },
    {
      "inputs": [
        {
          "internalType": "uint256",
          "name": "_candidateIndex",
          "type": "uint256"
        }
      ],
      "name": "getTotalVotesForCandidate",
      "outputs": [
        {
          "internalType": "uint256",
          "name": "",
          "type": "uint256"
        }
      ],
      "stateMutability": "view",
      "type": "function"
    },
    {
      "inputs": [
        {
          "internalType": "address",
          "name": "",
          "type": "address"
        }
      ],
      "name": "hasVoted",
      "outputs": [
        {
          "internalType": "bool",
          "name": "",
          "type": "bool"
        }
      ],
      "stateMutability": "view",
      "type": "function"
    },
    {
      "inputs": [],
      "name": "owner",
      "outputs": [
        {
          "internalType": "address",
          "name": "",
          "type": "address"
        }
      ],
      "stateMutability": "view",
      "type": "function"
    },
    {
      "inputs": [
        {
          "internalType": "uint256",
          "name": "_candidateIndex",
          "type": "uint256"
        }
      ],
      "name": "vote",
      "outputs": [],
      "stateMutability": "nonpayable",
      "type": "function"
    }
  ],
  "bytecode": "0x60806040523480156200001157600080fd5b50336000806101000a81548173ffffffffffffffffffffffffffffffffffffffff021916908373ffffffffffffffffffffffffffffffffffffffff160217905550620000986040518060400160405280600c81526020017f446f6e616c64205472756d700000000000000000000000000000000000000000815250620000e460201b60201c565b620000de6040518060400160405280600981526020017f4a6f6520426964656e0000000000000000000000000000000000000000000000815250620000e460201b60201c565b620008f7565b620000f5816200020260201b60201c565b1562000138576040517f08c379a00000000000000000000000000000000000000000000000000000000081526004016200012f9062000324565b60405180910390fd5b60026040518060600160405280838152602001600081526020016001151581525090806001815401808255809150506001900390600052602060002090600302016000909190919091506000820151816000019081620001999190620005c0565b506020820151816001015560408201518160020160006101000a81548160ff02191690831515021790555050507f74d7e40cfc0bf78c69cec7299d9516d4b4dc02a63035242c2563b28744425c1f81604051620001f7919062000725565b60405180910390a150565b600080600090505b600280549050811015620002b857826040516020016200022b91906200078b565b6040516020818303038152906040528051906020012060028281548110620002585762000257620007a4565b5b90600052602060002090600302016000016040516020016200027b919062000862565b6040516020818303038152906040528051906020012003620002a2576001915050620002be565b8080620002af90620008aa565b9150506200020a565b50600090505b919050565b600082825260208201905092915050565b7f43616e64696461746520616c7265616479206578697374732e00000000000000600082015250565b60006200030c601983620002c3565b91506200031982620002d4565b602082019050919050565b600060208201905081810360008301526200033f81620002fd565b9050919050565b600081519050919050565b7f4e487b7100000000000000000000000000000000000000000000000000000000600052604160045260246000fd5b7f4e487b7100000000000000000000000000000000000000000000000000000000600052602260045260246000fd5b60006002820490506001821680620003c857607f821691505b602082108103620003de57620003dd62000380565b5b50919050565b60008190508160005260206000209050919050565b60006020601f8301049050919050565b600082821b905092915050565b600060088302620004487fffffffffffffffffffffffffffffffffffffffffffffffffffffffffffffffff8262000409565b62000454868362000409565b95508019841693508086168417925050509392505050565b6000819050919050565b6000819050919050565b6000620004a16200049b62000495846200046c565b62000476565b6200046c565b9050919050565b6000819050919050565b620004bd8362000480565b620004d5620004cc82620004a8565b84845462000416565b825550505050565b600090565b620004ec620004dd565b620004f9818484620004b2565b505050565b5b81811015620005215762000515600082620004e2565b600181019050620004ff565b5050565b601f82111562000570576200053a81620003e4565b6200054584620003f9565b8101602085101562000555578190505b6200056d6200056485620003f9565b830182620004fe565b50505b505050565b600082821c905092915050565b6000620005956000198460080262000575565b1980831691505092915050565b6000620005b0838362000582565b9150826002028217905092915050565b620005cb8262000346565b67ffffffffffffffff811115620005e757620005e662000351565b5b620005f38254620003af565b6200060082828562000525565b600060209050601f83116001811462000638576000841562000623578287015190505b6200062f8582620005a2565b8655506200069f565b601f1984166200064886620003e4565b60005b8281101562000672578489015182556001820191506020850194506020810190506200064b565b868310156200069257848901516200068e601f89168262000582565b8355505b6001600288020188555050505b505050505050565b60005b83811015620006c7578082015181840152602081019050620006aa565b60008484015250505050565b6000601f19601f8301169050919050565b6000620006f18262000346565b620006fd8185620002c3565b93506200070f818560208601620006a7565b6200071a81620006d3565b840191505092915050565b60006020820190508181036000830152620007418184620006e4565b905092915050565b600081905092915050565b6000620007618262000346565b6200076d818562000749565b93506200077f818560208601620006a7565b80840191505092915050565b600062000799828462000754565b915081905092915050565b7f4e487b7100000000000000000000000000000000000000000000000000000000600052603260045260246000fd5b60008154620007e281620003af565b620007ee818662000749565b945060018216600081146200080c5760018114620008225762000859565b60ff198316865281151582028601935062000859565b6200082d85620003e4565b60005b83811015620008515781548189015260018201915060208101905062000830565b838801955050505b50505092915050565b6000620008708284620007d3565b915081905092915050565b7f4e487b7100000000000000000000000000000000000000000000000000000000600052601160045260246000fd5b6000620008b7826200046c565b91507fffffffffffffffffffffffffffffffffffffffffffffffffffffffffffffffff8203620008ec57620008eb6200087b565b5b600182019050919050565b61156580620009076000396000f3fe608060405234801561001057600080fd5b50600436106100885760003560e01c80633477ee2e1161005b5780633477ee2e14610115578063462e91ec146101475780636a15cfc0146101635780638da5cb5b1461019357610088565b80630121b93f1461008d57806309eef43e146100a95780632cdfa5a2146100d957806330a56347146100f7575b600080fd5b6100a760048036038101906100a2919061097a565b6101b1565b005b6100c360048036038101906100be9190610a05565b610377565b6040516100d09190610a4d565b60405180910390f35b6100e1610397565b6040516100ee9190610c28565b60405180910390f35b6100ff6105d4565b60405161010c9190610c59565b60405180910390f35b61012f600480360381019061012a919061097a565b6105e1565b60405161013e93929190610cbe565b60405180910390f35b610161600480360381019061015c9190610e31565b6106b0565b005b61017d6004803603810190610178919061097a565b6107bf565b60405161018a9190610c59565b60405180910390f35b61019b610835565b6040516101a89190610e89565b60405180910390f35b600160003373ffffffffffffffffffffffffffffffffffffffff1673ffffffffffffffffffffffffffffffffffffffff16815260200190815260200160002060009054906101000a900460ff161561023e576040517f08c379a000000000000000000000000000000000000000000000000000000000815260040161023590610ef0565b60405180910390fd5b6002805490508110610285576040517f08c379a000000000000000000000000000000000000000000000000000000000815260040161027c90610f5c565b60405180910390fd5b60018060003373ffffffffffffffffffffffffffffffffffffffff1673ffffffffffffffffffffffffffffffffffffffff16815260200190815260200160002060006101000a81548160ff021916908315150217905550600281815481106102f0576102ef610f7c565b5b9060005260206000209060030201600101600081548092919061031290610fda565b91905055507f85ccb673c0f28c4b8ba00fe954146d91c099b133e47a392bd0f6b547490d365f6002828154811061034c5761034b610f7c565b5b90600052602060002090600302016000013360405161036c92919061111b565b60405180910390a150565b60016020528060005260406000206000915054906101000a900460ff1681565b60606000805b60028054905081101561040457600281815481106103be576103bd610f7c565b5b906000526020600020906003020160020160009054906101000a900460ff16156103f15781806103ed90610fda565b9250505b80806103fc90610fda565b91505061039d565b5060008167ffffffffffffffff81111561042157610420610d06565b5b60405190808252806020026020018201604052801561045a57816020015b61044761090d565b81526020019060019003908161043f5790505b5090506000805b6002805490508110156105ca576002818154811061048257610481610f7c565b5b906000526020600020906003020160020160009054906101000a900460ff16156105b757600281815481106104ba576104b9610f7c565b5b90600052602060002090600302016040518060600160405290816000820180546104e390611051565b80601f016020809104026020016040519081016040528092919081815260200182805461050f90611051565b801561055c5780601f106105315761010080835404028352916020019161055c565b820191906000526020600020905b81548152906001019060200180831161053f57829003601f168201915b50505050508152602001600182015481526020016002820160009054906101000a900460ff16151515158152505083838151811061059d5761059c610f7c565b5b602002602001018190525081806105b390610fda565b9250505b80806105c290610fda565b915050610461565b5081935050505090565b6000600280549050905090565b600281815481106105f157600080fd5b906000526020600020906003020160009150905080600001805461061490611051565b80601f016020809104026020016040519081016040528092919081815260200182805461064090611051565b801561068d5780601f106106625761010080835404028352916020019161068d565b820191906000526020600020905b81548152906001019060200180831161067057829003601f168201915b5050505050908060010154908060020160009054906101000a900460ff16905083565b6106b981610859565b156106f9576040517f08c379a00000000000000000000000000000000000000000000000000000000081526004016106f090611197565b60405180910390fd5b60026040518060600160405280838152602001600081526020016001151581525090806001815401808255809150506001900390600052602060002090600302016000909190919091506000820151816000019081610758919061134e565b506020820151816001015560408201518160020160006101000a81548160ff02191690831515021790555050507f74d7e40cfc0bf78c69cec7299d9516d4b4dc02a63035242c2563b28744425c1f816040516107b49190611420565b60405180910390a150565b60006002805490508210610808576040517f08c379a00000000000000000000000000000000000000000000000000000000081526004016107ff90610f5c565b60405180910390fd5b6002828154811061081c5761081b610f7c565b5b9060005260206000209060030201600101549050919050565b60008054906101000a900473ffffffffffffffffffffffffffffffffffffffff1681565b600080600090505b600280549050811015610902578260405160200161087f919061147e565b60405160208183030381529060405280519060200120600282815481106108a9576108a8610f7c565b5b90600052602060002090600302016000016040516020016108ca9190611518565b60405160208183030381529060405280519060200120036108ef576001915050610908565b80806108fa90610fda565b915050610861565b50600090505b919050565b604051806060016040528060608152602001600081526020016000151581525090565b6000604051905090565b600080fd5b600080fd5b6000819050919050565b61095781610944565b811461096257600080fd5b50565b6000813590506109748161094e565b92915050565b6000602082840312156109905761098f61093a565b5b600061099e84828501610965565b91505092915050565b600073ffffffffffffffffffffffffffffffffffffffff82169050919050565b60006109d2826109a7565b9050919050565b6109e2816109c7565b81146109ed57600080fd5b50565b6000813590506109ff816109d9565b92915050565b600060208284031215610a1b57610a1a61093a565b5b6000610a29848285016109f0565b91505092915050565b60008115159050919050565b610a4781610a32565b82525050565b6000602082019050610a626000830184610a3e565b92915050565b600081519050919050565b600082825260208201905092915050565b6000819050602082019050919050565b600081519050919050565b600082825260208201905092915050565b60005b83811015610ace578082015181840152602081019050610ab3565b60008484015250505050565b6000601f19601f8301169050919050565b6000610af682610a94565b610b008185610a9f565b9350610b10818560208601610ab0565b610b1981610ada565b840191505092915050565b610b2d81610944565b82525050565b610b3c81610a32565b82525050565b60006060830160008301518482036000860152610b5f8282610aeb565b9150506020830151610b746020860182610b24565b506040830151610b876040860182610b33565b508091505092915050565b6000610b9e8383610b42565b905092915050565b6000602082019050919050565b6000610bbe82610a68565b610bc88185610a73565b935083602082028501610bda85610a84565b8060005b85811015610c165784840389528151610bf78582610b92565b9450610c0283610ba6565b925060208a01995050600181019050610bde565b50829750879550505050505092915050565b60006020820190508181036000830152610c428184610bb3565b905092915050565b610c5381610944565b82525050565b6000602082019050610c6e6000830184610c4a565b92915050565b600082825260208201905092915050565b6000610c9082610a94565b610c9a8185610c74565b9350610caa818560208601610ab0565b610cb381610ada565b840191505092915050565b60006060820190508181036000830152610cd88186610c85565b9050610ce76020830185610c4a565b610cf46040830184610a3e565b949350505050565b600080fd5b600080fd5b7f4e487b7100000000000000000000000000000000000000000000000000000000600052604160045260246000fd5b610d3e82610ada565b810181811067ffffffffffffffff82111715610d5d57610d5c610d06565b5b80604052505050565b6000610d70610930565b9050610d7c8282610d35565b919050565b600067ffffffffffffffff821115610d9c57610d9b610d06565b5b610da582610ada565b9050602081019050919050565b82818337600083830152505050565b6000610dd4610dcf84610d81565b610d66565b905082815260208101848484011115610df057610def610d01565b5b610dfb848285610db2565b509392505050565b600082601f830112610e1857610e17610cfc565b5b8135610e28848260208601610dc1565b91505092915050565b600060208284031215610e4757610e4661093a565b5b600082013567ffffffffffffffff811115610e6557610e6461093f565b5b610e7184828501610e03565b91505092915050565b610e83816109c7565b82525050565b6000602082019050610e9e6000830184610e7a565b92915050565b7f596f75206861766520616c726561647920766f7465642e000000000000000000600082015250565b6000610eda601783610c74565b9150610ee582610ea4565b602082019050919050565b60006020820190508181036000830152610f0981610ecd565b9050919050565b7f496e76616c69642063616e64696461746520696e646578000000000000000000600082015250565b6000610f46601783610c74565b9150610f5182610f10565b602082019050919050565b60006020820190508181036000830152610f7581610f39565b9050919050565b7f4e487b7100000000000000000000000000000000000000000000000000000000600052603260045260246000fd5b7f4e487b7100000000000000000000000000000000000000000000000000000000600052601160045260246000fd5b6000610fe582610944565b91507fffffffffffffffffffffffffffffffffffffffffffffffffffffffffffffffff820361101757611016610fab565b5b600182019050919050565b7f4e487b7100000000000000000000000000000000000000000000000000000000600052602260045260246000fd5b6000600282049050600182168061106957607f821691505b60208210810361107c5761107b611022565b5b50919050565b60008190508160005260206000209050919050565b600081546110a481611051565b6110ae8186610c74565b945060018216600081146110c957600181146110df57611112565b60ff198316865281151560200286019350611112565b6110e885611082565b60005b8381101561110a578154818901526001820191506020810190506110eb565b808801955050505b50505092915050565b600060408201905081810360008301526111358185611097565b90506111446020830184610e7a565b9392505050565b7f43616e64696461746520616c7265616479206578697374732e00000000000000600082015250565b6000611181601983610c74565b915061118c8261114b565b602082019050919050565b600060208201905081810360008301526111b081611174565b9050919050565b60006020601f8301049050919050565b600082821b905092915050565b6000600883026112047fffffffffffffffffffffffffffffffffffffffffffffffffffffffffffffffff826111c7565b61120e86836111c7565b95508019841693508086168417925050509392505050565b6000819050919050565b600061124b61124661124184610944565b611226565b610944565b9050919050565b6000819050919050565b61126583611230565b61127961127182611252565b8484546111d4565b825550505050565b600090565b61128e611281565b61129981848461125c565b505050565b5b818110156112bd576112b2600082611286565b60018101905061129f565b5050565b601f821115611302576112d381611082565b6112dc846111b7565b810160208510156112eb578190505b6112ff6112f7856111b7565b83018261129e565b50505b505050565b600082821c905092915050565b600061132560001984600802611307565b1980831691505092915050565b600061133e8383611314565b9150826002028217905092915050565b61135782610a94565b67ffffffffffffffff8111156113705761136f610d06565b5b61137a8254611051565b6113858282856112c1565b600060209050601f8311600181146113b857600084156113a6578287015190505b6113b08582611332565b865550611418565b601f1984166113c686611082565b60005b828110156113ee578489015182556001820191506020850194506020810190506113c9565b8683101561140b5784890151611407601f891682611314565b8355505b6001600288020188555050505b505050505050565b6000602082019050818103600083015261143a8184610c85565b905092915050565b600081905092915050565b600061145882610a94565b6114628185611442565b9350611472818560208601610ab0565b80840191505092915050565b600061148a828461144d565b915081905092915050565b600081546114a281611051565b6114ac8186611442565b945060018216600081146114c757600181146114dc5761150f565b60ff198316865281151582028601935061150f565b6114e585611082565b60005b83811015611507578154818901526001820191506020810190506114e8565b838801955050505b50505092915050565b60006115248284611495565b91508190509291505056fea26469706673582212200fa53c06ec0601a91fb21ff1a937afed62068492b9fa4759e001fee514b2441164736f6c63430008110033",
  "linkReferences": {},
  "deployedLinkReferences": {}
}