{
  "_format": "hh-sol-artifact-1",
  "contractName": "RevocationEnforcer",
  "sourceName": "contracts/enforcers/RevocationEnforcer.sol",
  "abi": [
    {
      "inputs": [
        {
          "components": [
            {
              "internalType": "address",
              "name": "enforcer",
              "type": "address"
            },
            {
              "internalType": "bytes",
              "name": "terms",
              "type": "bytes"
            }
          ],
          "internalType": "struct Caveat[]",
          "name": "_input",
          "type": "tuple[]"
        }
      ],
      "name": "GET_CAVEAT_ARRAY_PACKETHASH",
      "outputs": [
        {
          "internalType": "bytes32",
          "name": "",
          "type": "bytes32"
        }
      ],
      "stateMutability": "pure",
      "type": "function"
    },
    {
      "inputs": [
        {
          "components": [
            {
              "internalType": "address",
              "name": "enforcer",
              "type": "address"
            },
            {
              "internalType": "bytes",
              "name": "terms",
              "type": "bytes"
            }
          ],
          "internalType": "struct Caveat",
          "name": "_input",
          "type": "tuple"
        }
      ],
      "name": "GET_CAVEAT_PACKETHASH",
      "outputs": [
        {
          "internalType": "bytes32",
          "name": "",
          "type": "bytes32"
        }
      ],
      "stateMutability": "pure",
      "type": "function"
    },
    {
      "inputs": [
        {
          "components": [
            {
              "internalType": "address",
              "name": "delegate",
              "type": "address"
            },
            {
              "internalType": "bytes32",
              "name": "authority",
              "type": "bytes32"
            },
            {
              "components": [
                {
                  "internalType": "address",
                  "name": "enforcer",
                  "type": "address"
                },
                {
                  "internalType": "bytes",
                  "name": "terms",
                  "type": "bytes"
                }
              ],
              "internalType": "struct Caveat[]",
              "name": "caveats",
              "type": "tuple[]"
            }
          ],
          "internalType": "struct Delegation",
          "name": "_input",
          "type": "tuple"
        }
      ],
      "name": "GET_DELEGATION_PACKETHASH",
      "outputs": [
        {
          "internalType": "bytes32",
          "name": "",
          "type": "bytes32"
        }
      ],
      "stateMutability": "pure",
      "type": "function"
    },
    {
      "inputs": [
        {
          "components": [
            {
              "components": [
                {
                  "components": [
                    {
                      "internalType": "address",
                      "name": "to",
                      "type": "address"
                    },
                    {
                      "internalType": "uint256",
                      "name": "gasLimit",
                      "type": "uint256"
                    },
                    {
                      "internalType": "bytes",
                      "name": "data",
                      "type": "bytes"
                    }
                  ],
                  "internalType": "struct Transaction",
                  "name": "transaction",
                  "type": "tuple"
                },
                {
                  "components": [
                    {
                      "components": [
                        {
                          "internalType": "address",
                          "name": "delegate",
                          "type": "address"
                        },
                        {
                          "internalType": "bytes32",
                          "name": "authority",
                          "type": "bytes32"
                        },
                        {
                          "components": [
                            {
                              "internalType": "address",
                              "name": "enforcer",
                              "type": "address"
                            },
                            {
                              "internalType": "bytes",
                              "name": "terms",
                              "type": "bytes"
                            }
                          ],
                          "internalType": "struct Caveat[]",
                          "name": "caveats",
                          "type": "tuple[]"
                        }
                      ],
                      "internalType": "struct Delegation",
                      "name": "delegation",
                      "type": "tuple"
                    },
                    {
                      "internalType": "bytes",
                      "name": "signature",
                      "type": "bytes"
                    }
                  ],
                  "internalType": "struct SignedDelegation[]",
                  "name": "authority",
                  "type": "tuple[]"
                }
              ],
              "internalType": "struct Invocation[]",
              "name": "batch",
              "type": "tuple[]"
            },
            {
              "components": [
                {
                  "internalType": "uint256",
                  "name": "nonce",
                  "type": "uint256"
                },
                {
                  "internalType": "uint256",
                  "name": "queue",
                  "type": "uint256"
                }
              ],
              "internalType": "struct ReplayProtection",
              "name": "replayProtection",
              "type": "tuple"
            }
          ],
          "internalType": "struct Invocations",
          "name": "_input",
          "type": "tuple"
        }
      ],
      "name": "GET_INVOCATIONS_PACKETHASH",
      "outputs": [
        {
          "internalType": "bytes32",
          "name": "",
          "type": "bytes32"
        }
      ],
      "stateMutability": "pure",
      "type": "function"
    },
    {
      "inputs": [
        {
          "components": [
            {
              "components": [
                {
                  "internalType": "address",
                  "name": "to",
                  "type": "address"
                },
                {
                  "internalType": "uint256",
                  "name": "gasLimit",
                  "type": "uint256"
                },
                {
                  "internalType": "bytes",
                  "name": "data",
                  "type": "bytes"
                }
              ],
              "internalType": "struct Transaction",
              "name": "transaction",
              "type": "tuple"
            },
            {
              "components": [
                {
                  "components": [
                    {
                      "internalType": "address",
                      "name": "delegate",
                      "type": "address"
                    },
                    {
                      "internalType": "bytes32",
                      "name": "authority",
                      "type": "bytes32"
                    },
                    {
                      "components": [
                        {
                          "internalType": "address",
                          "name": "enforcer",
                          "type": "address"
                        },
                        {
                          "internalType": "bytes",
                          "name": "terms",
                          "type": "bytes"
                        }
                      ],
                      "internalType": "struct Caveat[]",
                      "name": "caveats",
                      "type": "tuple[]"
                    }
                  ],
                  "internalType": "struct Delegation",
                  "name": "delegation",
                  "type": "tuple"
                },
                {
                  "internalType": "bytes",
                  "name": "signature",
                  "type": "bytes"
                }
              ],
              "internalType": "struct SignedDelegation[]",
              "name": "authority",
              "type": "tuple[]"
            }
          ],
          "internalType": "struct Invocation[]",
          "name": "_input",
          "type": "tuple[]"
        }
      ],
      "name": "GET_INVOCATION_ARRAY_PACKETHASH",
      "outputs": [
        {
          "internalType": "bytes32",
          "name": "",
          "type": "bytes32"
        }
      ],
      "stateMutability": "pure",
      "type": "function"
    },
    {
      "inputs": [
        {
          "components": [
            {
              "components": [
                {
                  "internalType": "address",
                  "name": "to",
                  "type": "address"
                },
                {
                  "internalType": "uint256",
                  "name": "gasLimit",
                  "type": "uint256"
                },
                {
                  "internalType": "bytes",
                  "name": "data",
                  "type": "bytes"
                }
              ],
              "internalType": "struct Transaction",
              "name": "transaction",
              "type": "tuple"
            },
            {
              "components": [
                {
                  "components": [
                    {
                      "internalType": "address",
                      "name": "delegate",
                      "type": "address"
                    },
                    {
                      "internalType": "bytes32",
                      "name": "authority",
                      "type": "bytes32"
                    },
                    {
                      "components": [
                        {
                          "internalType": "address",
                          "name": "enforcer",
                          "type": "address"
                        },
                        {
                          "internalType": "bytes",
                          "name": "terms",
                          "type": "bytes"
                        }
                      ],
                      "internalType": "struct Caveat[]",
                      "name": "caveats",
                      "type": "tuple[]"
                    }
                  ],
                  "internalType": "struct Delegation",
                  "name": "delegation",
                  "type": "tuple"
                },
                {
                  "internalType": "bytes",
                  "name": "signature",
                  "type": "bytes"
                }
              ],
              "internalType": "struct SignedDelegation[]",
              "name": "authority",
              "type": "tuple[]"
            }
          ],
          "internalType": "struct Invocation",
          "name": "_input",
          "type": "tuple"
        }
      ],
      "name": "GET_INVOCATION_PACKETHASH",
      "outputs": [
        {
          "internalType": "bytes32",
          "name": "",
          "type": "bytes32"
        }
      ],
      "stateMutability": "pure",
      "type": "function"
    },
    {
      "inputs": [
        {
          "components": [
            {
              "internalType": "uint256",
              "name": "nonce",
              "type": "uint256"
            },
            {
              "internalType": "uint256",
              "name": "queue",
              "type": "uint256"
            }
          ],
          "internalType": "struct ReplayProtection",
          "name": "_input",
          "type": "tuple"
        }
      ],
      "name": "GET_REPLAYPROTECTION_PACKETHASH",
      "outputs": [
        {
          "internalType": "bytes32",
          "name": "",
          "type": "bytes32"
        }
      ],
      "stateMutability": "pure",
      "type": "function"
    },
    {
      "inputs": [
        {
          "components": [
            {
              "components": [
                {
                  "internalType": "address",
                  "name": "delegate",
                  "type": "address"
                },
                {
                  "internalType": "bytes32",
                  "name": "authority",
                  "type": "bytes32"
                },
                {
                  "components": [
                    {
                      "internalType": "address",
                      "name": "enforcer",
                      "type": "address"
                    },
                    {
                      "internalType": "bytes",
                      "name": "terms",
                      "type": "bytes"
                    }
                  ],
                  "internalType": "struct Caveat[]",
                  "name": "caveats",
                  "type": "tuple[]"
                }
              ],
              "internalType": "struct Delegation",
              "name": "delegation",
              "type": "tuple"
            },
            {
              "internalType": "bytes",
              "name": "signature",
              "type": "bytes"
            }
          ],
          "internalType": "struct SignedDelegation[]",
          "name": "_input",
          "type": "tuple[]"
        }
      ],
      "name": "GET_SIGNEDDELEGATION_ARRAY_PACKETHASH",
      "outputs": [
        {
          "internalType": "bytes32",
          "name": "",
          "type": "bytes32"
        }
      ],
      "stateMutability": "pure",
      "type": "function"
    },
    {
      "inputs": [
        {
          "components": [
            {
              "components": [
                {
                  "internalType": "address",
                  "name": "delegate",
                  "type": "address"
                },
                {
                  "internalType": "bytes32",
                  "name": "authority",
                  "type": "bytes32"
                },
                {
                  "components": [
                    {
                      "internalType": "address",
                      "name": "enforcer",
                      "type": "address"
                    },
                    {
                      "internalType": "bytes",
                      "name": "terms",
                      "type": "bytes"
                    }
                  ],
                  "internalType": "struct Caveat[]",
                  "name": "caveats",
                  "type": "tuple[]"
                }
              ],
              "internalType": "struct Delegation",
              "name": "delegation",
              "type": "tuple"
            },
            {
              "internalType": "bytes",
              "name": "signature",
              "type": "bytes"
            }
          ],
          "internalType": "struct SignedDelegation",
          "name": "_input",
          "type": "tuple"
        }
      ],
      "name": "GET_SIGNEDDELEGATION_PACKETHASH",
      "outputs": [
        {
          "internalType": "bytes32",
          "name": "",
          "type": "bytes32"
        }
      ],
      "stateMutability": "pure",
      "type": "function"
    },
    {
      "inputs": [
        {
          "components": [
            {
              "internalType": "address",
              "name": "to",
              "type": "address"
            },
            {
              "internalType": "uint256",
              "name": "gasLimit",
              "type": "uint256"
            },
            {
              "internalType": "bytes",
              "name": "data",
              "type": "bytes"
            }
          ],
          "internalType": "struct Transaction",
          "name": "_input",
          "type": "tuple"
        }
      ],
      "name": "GET_TRANSACTION_PACKETHASH",
      "outputs": [
        {
          "internalType": "bytes32",
          "name": "",
          "type": "bytes32"
        }
      ],
      "stateMutability": "pure",
      "type": "function"
    },
    {
      "inputs": [
        {
          "components": [
            {
              "components": [
                {
                  "internalType": "address",
                  "name": "delegate",
                  "type": "address"
                },
                {
                  "internalType": "bytes32",
                  "name": "authority",
                  "type": "bytes32"
                },
                {
                  "components": [
                    {
                      "internalType": "address",
                      "name": "enforcer",
                      "type": "address"
                    },
                    {
                      "internalType": "bytes",
                      "name": "terms",
                      "type": "bytes"
                    }
                  ],
                  "internalType": "struct Caveat[]",
                  "name": "caveats",
                  "type": "tuple[]"
                }
              ],
              "internalType": "struct Delegation",
              "name": "delegation",
              "type": "tuple"
            },
            {
              "internalType": "bytes",
              "name": "signature",
              "type": "bytes"
            }
          ],
          "internalType": "struct SignedDelegation",
          "name": "_signedDelegation",
          "type": "tuple"
        }
      ],
      "name": "checkIsRevoked",
      "outputs": [
        {
          "internalType": "bool",
          "name": "revoked",
          "type": "bool"
        }
      ],
      "stateMutability": "view",
      "type": "function"
    },
    {
      "inputs": [
        {
          "components": [
            {
              "components": [
                {
                  "internalType": "address",
                  "name": "to",
                  "type": "address"
                },
                {
                  "internalType": "uint256",
                  "name": "gasLimit",
                  "type": "uint256"
                },
                {
                  "internalType": "bytes",
                  "name": "data",
                  "type": "bytes"
                }
              ],
              "internalType": "struct Transaction",
              "name": "transaction",
              "type": "tuple"
            },
            {
              "components": [
                {
                  "components": [
                    {
                      "internalType": "address",
                      "name": "delegate",
                      "type": "address"
                    },
                    {
                      "internalType": "bytes32",
                      "name": "authority",
                      "type": "bytes32"
                    },
                    {
                      "components": [
                        {
                          "internalType": "address",
                          "name": "enforcer",
                          "type": "address"
                        },
                        {
                          "internalType": "bytes",
                          "name": "terms",
                          "type": "bytes"
                        }
                      ],
                      "internalType": "struct Caveat[]",
                      "name": "caveats",
                      "type": "tuple[]"
                    }
                  ],
                  "internalType": "struct Delegation",
                  "name": "delegation",
                  "type": "tuple"
                },
                {
                  "internalType": "bytes",
                  "name": "signature",
                  "type": "bytes"
                }
              ],
              "internalType": "struct SignedDelegation[]",
              "name": "authority",
              "type": "tuple[]"
            }
          ],
          "internalType": "struct Invocation[]",
          "name": "batch",
          "type": "tuple[]"
        }
      ],
      "name": "contractInvoke",
      "outputs": [
        {
          "internalType": "bool",
          "name": "",
          "type": "bool"
        }
      ],
      "stateMutability": "nonpayable",
      "type": "function"
    },
    {
      "inputs": [],
      "name": "domainHash",
      "outputs": [
        {
          "internalType": "bytes32",
          "name": "",
          "type": "bytes32"
        }
      ],
      "stateMutability": "view",
      "type": "function"
    },
    {
      "inputs": [
        {
          "internalType": "bytes",
          "name": "_terms",
          "type": "bytes"
        },
        {
          "components": [
            {
              "internalType": "address",
              "name": "to",
              "type": "address"
            },
            {
              "internalType": "uint256",
              "name": "gasLimit",
              "type": "uint256"
            },
            {
              "internalType": "bytes",
              "name": "data",
              "type": "bytes"
            }
          ],
          "internalType": "struct Transaction",
          "name": "_transaction",
          "type": "tuple"
        },
        {
          "internalType": "bytes32",
          "name": "delegationHash",
          "type": "bytes32"
        }
      ],
      "name": "enforceCaveat",
      "outputs": [
        {
          "internalType": "bool",
          "name": "",
          "type": "bool"
        }
      ],
      "stateMutability": "view",
      "type": "function"
    },
    {
      "inputs": [
        {
          "components": [
            {
              "internalType": "address",
              "name": "delegate",
              "type": "address"
            },
            {
              "internalType": "bytes32",
              "name": "authority",
              "type": "bytes32"
            },
            {
              "components": [
                {
                  "internalType": "address",
                  "name": "enforcer",
                  "type": "address"
                },
                {
                  "internalType": "bytes",
                  "name": "terms",
                  "type": "bytes"
                }
              ],
              "internalType": "struct Caveat[]",
              "name": "caveats",
              "type": "tuple[]"
            }
          ],
          "internalType": "struct Delegation",
          "name": "delegation",
          "type": "tuple"
        }
      ],
      "name": "getDelegationTypedDataHash",
      "outputs": [
        {
          "internalType": "bytes32",
          "name": "",
          "type": "bytes32"
        }
      ],
      "stateMutability": "view",
      "type": "function"
    },
    {
      "inputs": [
        {
          "internalType": "string",
          "name": "contractName",
          "type": "string"
        },
        {
          "internalType": "string",
          "name": "version",
          "type": "string"
        },
        {
          "internalType": "uint256",
          "name": "chainId",
          "type": "uint256"
        },
        {
          "internalType": "address",
          "name": "verifyingContract",
          "type": "address"
        }
      ],
      "name": "getEIP712DomainHash",
      "outputs": [
        {
          "internalType": "bytes32",
          "name": "",
          "type": "bytes32"
        }
      ],
      "stateMutability": "pure",
      "type": "function"
    },
    {
      "inputs": [
        {
          "components": [
            {
              "internalType": "address",
              "name": "delegate",
              "type": "address"
            },
            {
              "internalType": "bytes32",
              "name": "authority",
              "type": "bytes32"
            },
            {
              "components": [
                {
                  "internalType": "address",
                  "name": "enforcer",
                  "type": "address"
                },
                {
                  "internalType": "bytes",
                  "name": "terms",
                  "type": "bytes"
                }
              ],
              "internalType": "struct Caveat[]",
              "name": "caveats",
              "type": "tuple[]"
            }
          ],
          "internalType": "struct Delegation",
          "name": "delegation",
          "type": "tuple"
        },
        {
          "internalType": "bytes32",
          "name": "domainHash",
          "type": "bytes32"
        }
      ],
      "name": "getExternalDelegationTypedDataHash",
      "outputs": [
        {
          "internalType": "bytes32",
          "name": "",
          "type": "bytes32"
        }
      ],
      "stateMutability": "pure",
      "type": "function"
    },
    {
      "inputs": [
        {
          "components": [
            {
              "components": [
                {
                  "components": [
                    {
                      "internalType": "address",
                      "name": "to",
                      "type": "address"
                    },
                    {
                      "internalType": "uint256",
                      "name": "gasLimit",
                      "type": "uint256"
                    },
                    {
                      "internalType": "bytes",
                      "name": "data",
                      "type": "bytes"
                    }
                  ],
                  "internalType": "struct Transaction",
                  "name": "transaction",
                  "type": "tuple"
                },
                {
                  "components": [
                    {
                      "components": [
                        {
                          "internalType": "address",
                          "name": "delegate",
                          "type": "address"
                        },
                        {
                          "internalType": "bytes32",
                          "name": "authority",
                          "type": "bytes32"
                        },
                        {
                          "components": [
                            {
                              "internalType": "address",
                              "name": "enforcer",
                              "type": "address"
                            },
                            {
                              "internalType": "bytes",
                              "name": "terms",
                              "type": "bytes"
                            }
                          ],
                          "internalType": "struct Caveat[]",
                          "name": "caveats",
                          "type": "tuple[]"
                        }
                      ],
                      "internalType": "struct Delegation",
                      "name": "delegation",
                      "type": "tuple"
                    },
                    {
                      "internalType": "bytes",
                      "name": "signature",
                      "type": "bytes"
                    }
                  ],
                  "internalType": "struct SignedDelegation[]",
                  "name": "authority",
                  "type": "tuple[]"
                }
              ],
              "internalType": "struct Invocation[]",
              "name": "batch",
              "type": "tuple[]"
            },
            {
              "components": [
                {
                  "internalType": "uint256",
                  "name": "nonce",
                  "type": "uint256"
                },
                {
                  "internalType": "uint256",
                  "name": "queue",
                  "type": "uint256"
                }
              ],
              "internalType": "struct ReplayProtection",
              "name": "replayProtection",
              "type": "tuple"
            }
          ],
          "internalType": "struct Invocations",
          "name": "invocations",
          "type": "tuple"
        }
      ],
      "name": "getInvocationsTypedDataHash",
      "outputs": [
        {
          "internalType": "bytes32",
          "name": "",
          "type": "bytes32"
        }
      ],
      "stateMutability": "view",
      "type": "function"
    },
    {
      "inputs": [
        {
          "internalType": "address",
          "name": "intendedSender",
          "type": "address"
        },
        {
          "internalType": "uint256",
          "name": "queue",
          "type": "uint256"
        }
      ],
      "name": "getNonce",
      "outputs": [
        {
          "internalType": "uint256",
          "name": "",
          "type": "uint256"
        }
      ],
      "stateMutability": "view",
      "type": "function"
    },
    {
      "inputs": [
        {
          "components": [
            {
              "components": [
                {
                  "components": [
                    {
                      "components": [
                        {
                          "internalType": "address",
                          "name": "to",
                          "type": "address"
                        },
                        {
                          "internalType": "uint256",
                          "name": "gasLimit",
                          "type": "uint256"
                        },
                        {
                          "internalType": "bytes",
                          "name": "data",
                          "type": "bytes"
                        }
                      ],
                      "internalType": "struct Transaction",
                      "name": "transaction",
                      "type": "tuple"
                    },
                    {
                      "components": [
                        {
                          "components": [
                            {
                              "internalType": "address",
                              "name": "delegate",
                              "type": "address"
                            },
                            {
                              "internalType": "bytes32",
                              "name": "authority",
                              "type": "bytes32"
                            },
                            {
                              "components": [
                                {
                                  "internalType": "address",
                                  "name": "enforcer",
                                  "type": "address"
                                },
                                {
                                  "internalType": "bytes",
                                  "name": "terms",
                                  "type": "bytes"
                                }
                              ],
                              "internalType": "struct Caveat[]",
                              "name": "caveats",
                              "type": "tuple[]"
                            }
                          ],
                          "internalType": "struct Delegation",
                          "name": "delegation",
                          "type": "tuple"
                        },
                        {
                          "internalType": "bytes",
                          "name": "signature",
                          "type": "bytes"
                        }
                      ],
                      "internalType": "struct SignedDelegation[]",
                      "name": "authority",
                      "type": "tuple[]"
                    }
                  ],
                  "internalType": "struct Invocation[]",
                  "name": "batch",
                  "type": "tuple[]"
                },
                {
                  "components": [
                    {
                      "internalType": "uint256",
                      "name": "nonce",
                      "type": "uint256"
                    },
                    {
                      "internalType": "uint256",
                      "name": "queue",
                      "type": "uint256"
                    }
                  ],
                  "internalType": "struct ReplayProtection",
                  "name": "replayProtection",
                  "type": "tuple"
                }
              ],
              "internalType": "struct Invocations",
              "name": "invocations",
              "type": "tuple"
            },
            {
              "internalType": "bytes",
              "name": "signature",
              "type": "bytes"
            }
          ],
          "internalType": "struct SignedInvocation[]",
          "name": "signedInvocations",
          "type": "tuple[]"
        }
      ],
      "name": "invoke",
      "outputs": [
        {
          "internalType": "bool",
          "name": "success",
          "type": "bool"
        }
      ],
      "stateMutability": "nonpayable",
      "type": "function"
    },
    {
      "inputs": [
        {
          "components": [
            {
              "components": [
                {
                  "internalType": "address",
                  "name": "delegate",
                  "type": "address"
                },
                {
                  "internalType": "bytes32",
                  "name": "authority",
                  "type": "bytes32"
                },
                {
                  "components": [
                    {
                      "internalType": "address",
                      "name": "enforcer",
                      "type": "address"
                    },
                    {
                      "internalType": "bytes",
                      "name": "terms",
                      "type": "bytes"
                    }
                  ],
                  "internalType": "struct Caveat[]",
                  "name": "caveats",
                  "type": "tuple[]"
                }
              ],
              "internalType": "struct Delegation",
              "name": "delegation",
              "type": "tuple"
            },
            {
              "internalType": "bytes",
              "name": "signature",
              "type": "bytes"
            }
          ],
          "internalType": "struct SignedDelegation",
          "name": "signedDelegation",
          "type": "tuple"
        },
        {
          "internalType": "bytes32",
          "name": "domainHash",
          "type": "bytes32"
        }
      ],
      "name": "revokeDelegation",
      "outputs": [],
      "stateMutability": "nonpayable",
      "type": "function"
    },
    {
      "inputs": [
        {
          "components": [
            {
              "components": [
                {
                  "internalType": "address",
                  "name": "delegate",
                  "type": "address"
                },
                {
                  "internalType": "bytes32",
                  "name": "authority",
                  "type": "bytes32"
                },
                {
                  "components": [
                    {
                      "internalType": "address",
                      "name": "enforcer",
                      "type": "address"
                    },
                    {
                      "internalType": "bytes",
                      "name": "terms",
                      "type": "bytes"
                    }
                  ],
                  "internalType": "struct Caveat[]",
                  "name": "caveats",
                  "type": "tuple[]"
                }
              ],
              "internalType": "struct Delegation",
              "name": "delegation",
              "type": "tuple"
            },
            {
              "internalType": "bytes",
              "name": "signature",
              "type": "bytes"
            }
          ],
          "internalType": "struct SignedDelegation",
          "name": "signedDelegation",
          "type": "tuple"
        }
      ],
      "name": "verifyDelegationSignature",
      "outputs": [
        {
          "internalType": "address",
          "name": "",
          "type": "address"
        }
      ],
      "stateMutability": "view",
      "type": "function"
    },
    {
      "inputs": [
        {
          "components": [
            {
              "components": [
                {
                  "internalType": "address",
                  "name": "delegate",
                  "type": "address"
                },
                {
                  "internalType": "bytes32",
                  "name": "authority",
                  "type": "bytes32"
                },
                {
                  "components": [
                    {
                      "internalType": "address",
                      "name": "enforcer",
                      "type": "address"
                    },
                    {
                      "internalType": "bytes",
                      "name": "terms",
                      "type": "bytes"
                    }
                  ],
                  "internalType": "struct Caveat[]",
                  "name": "caveats",
                  "type": "tuple[]"
                }
              ],
              "internalType": "struct Delegation",
              "name": "delegation",
              "type": "tuple"
            },
            {
              "internalType": "bytes",
              "name": "signature",
              "type": "bytes"
            }
          ],
          "internalType": "struct SignedDelegation",
          "name": "signedDelegation",
          "type": "tuple"
        },
        {
          "internalType": "bytes32",
          "name": "domainHash",
          "type": "bytes32"
        }
      ],
      "name": "verifyExternalDelegationSignature",
      "outputs": [
        {
          "internalType": "address",
          "name": "",
          "type": "address"
        }
      ],
      "stateMutability": "view",
      "type": "function"
    },
    {
      "inputs": [
        {
          "components": [
            {
              "components": [
                {
                  "components": [
                    {
                      "components": [
                        {
                          "internalType": "address",
                          "name": "to",
                          "type": "address"
                        },
                        {
                          "internalType": "uint256",
                          "name": "gasLimit",
                          "type": "uint256"
                        },
                        {
                          "internalType": "bytes",
                          "name": "data",
                          "type": "bytes"
                        }
                      ],
                      "internalType": "struct Transaction",
                      "name": "transaction",
                      "type": "tuple"
                    },
                    {
                      "components": [
                        {
                          "components": [
                            {
                              "internalType": "address",
                              "name": "delegate",
                              "type": "address"
                            },
                            {
                              "internalType": "bytes32",
                              "name": "authority",
                              "type": "bytes32"
                            },
                            {
                              "components": [
                                {
                                  "internalType": "address",
                                  "name": "enforcer",
                                  "type": "address"
                                },
                                {
                                  "internalType": "bytes",
                                  "name": "terms",
                                  "type": "bytes"
                                }
                              ],
                              "internalType": "struct Caveat[]",
                              "name": "caveats",
                              "type": "tuple[]"
                            }
                          ],
                          "internalType": "struct Delegation",
                          "name": "delegation",
                          "type": "tuple"
                        },
                        {
                          "internalType": "bytes",
                          "name": "signature",
                          "type": "bytes"
                        }
                      ],
                      "internalType": "struct SignedDelegation[]",
                      "name": "authority",
                      "type": "tuple[]"
                    }
                  ],
                  "internalType": "struct Invocation[]",
                  "name": "batch",
                  "type": "tuple[]"
                },
                {
                  "components": [
                    {
                      "internalType": "uint256",
                      "name": "nonce",
                      "type": "uint256"
                    },
                    {
                      "internalType": "uint256",
                      "name": "queue",
                      "type": "uint256"
                    }
                  ],
                  "internalType": "struct ReplayProtection",
                  "name": "replayProtection",
                  "type": "tuple"
                }
              ],
              "internalType": "struct Invocations",
              "name": "invocations",
              "type": "tuple"
            },
            {
              "internalType": "bytes",
              "name": "signature",
              "type": "bytes"
            }
          ],
          "internalType": "struct SignedInvocation",
          "name": "signedInvocation",
          "type": "tuple"
        }
      ],
      "name": "verifyInvocationSignature",
      "outputs": [
        {
          "internalType": "address",
          "name": "",
          "type": "address"
        }
      ],
      "stateMutability": "view",
      "type": "function"
    }
  ],
  "bytecode": "0x60a060405234801561001057600080fd5b50604051806040016040528060128152602001712932bb37b1b0ba34b7b722b73337b931b2b960711b815250604051806040016040528060018152602001603160f81b8152506100688282463061007360201b60201c565b608052506100ef9050565b8351602094850120835193850193909320604080517f8b73c3c69bb8fe3d512ecc4cf759cc79239f7b179b0ffacaa9a75d522b39400f8188015280820195909552606085019190915260808401929092526001600160a01b031660a0808401919091528151808403909101815260c09092019052805191012090565b608051612042610118600039600081816103c401528181610744015261097a01526120426000f3fe608060405234801561001057600080fd5b50600436106101585760003560e01c8063736f7ce7116100c3578063a58ab45c1161007c578063a58ab45c1461030f578063caced6c514610322578063d327c1eb14610335578063dfe86ac5146103bf578063fb8ad30d146103e6578063fc762e46146103f957600080fd5b8063736f7ce7146102645780637b577b5814610277578063895358031461028a5780638a04499e146102be57806397182ed6146102e9578063a2e01f75146102fc57600080fd5b80635c6d9f0c116101155780635c6d9f0c146101f25780635cf1b24a1461020557806360b6d768146102185780636c2b12531461022b5780636f9658031461023e5780637234eefe1461025157600080fd5b806308aaf6b01461015d5780632f52a2fd146101835780632fad7efc146101965780633a481821146101b95780635068de4c146101cc57806357e1c29d146101df575b600080fd5b61017061016b36600461141f565b61040e565b6040519081526020015b60405180910390f35b610170610191366004611562565b61048e565b6101a96101a43660046115e1565b6104f9565b604051901515815260200161017a565b6101706101c736600461183a565b6105c1565b6101a96101da36600461186e565b610638565b6101a96101ed36600461190e565b6106a7565b6101a96102003660046115e1565b6106cc565b610170610213366004611942565b6106e2565b6101706102263660046119ff565b61073f565b61017061023936600461190e565b61078f565b61017061024c366004611a33565b6107ec565b61017061025f3660046119ff565b61083d565b610170610272366004611a4f565b61087b565b610170610285366004611a83565b6108e3565b610170610298366004611ab7565b6001600160a01b0391909116600090815260208181526040808320938352929052205490565b6102d16102cc36600461190e565b61094b565b6040516001600160a01b03909116815260200161017a565b6101706102f7366004611562565b610975565b61017061030a366004611ae1565b6109a2565b61017061031d366004611b15565b610a0e565b6102d1610330366004611b98565b610a59565b610170610343366004611bcc565b8351602094850120835193850193909320604080517f8b73c3c69bb8fe3d512ecc4cf759cc79239f7b179b0ffacaa9a75d522b39400f8188015280820195909552606085019190915260808401929092526001600160a01b031660a0808401919091528151808403909101815260c09092019052805191012090565b6101707f000000000000000000000000000000000000000000000000000000000000000081565b6102d16103f4366004611c49565b610a83565b61040c610407366004611c7e565b610aaf565b005b6000807f80ad7e1b04ee6d994a125f4714ca0720908bd80ed16063ec8aee4b88e9253e2d836000015184602001518051906020012060405160200161046f939291909283526001600160a01b03919091166020830152604082015260600190565b60408051601f1981840301815291905280516020909101209392505050565b6000807f409f5114779a253e700d775d7845e6efc1e83685ac59868d2df3d4de51c7d621836000015184602001516104c986604001516108e3565b6040805160208101959095526001600160a01b03909316928401929092526060830152608082015260a00161046f565b6000805b828110156105ba573684848381811061051857610518611cb9565b905060200281019061052a9190611ccf565b9050600061053a61033083611cef565b90506105868187878681811061055257610552611cb9565b90506020028101906105649190611ccf565b61056e9080611cfb565b6020018036038101906105819190611a33565b610b6e565b6105a36105938380611cfb565b61059d9080611d11565b83610c28565b9350505080806105b290611d70565b9150506104fd565b5092915050565b6000606060005b835181101561062957816105f48583815181106105e7576105e7611cb9565b60200260200101516106e2565b604051602001610605929190611db9565b6040516020818303038152906040529150808061062190611d70565b9150506105c8565b50805160209091012092915050565b60008181526001602052604081205460ff161561069c5760405162461bcd60e51b815260206004820152601a60248201527f5265766f636174696f6e456e666f726365723a7265766f6b656400000000000060448201526064015b60405180910390fd5b506001949350505050565b6000806106b38361078f565b60009081526001602052604090205460ff169392505050565b60006106d9838333610c28565b90505b92915050565b6000807fd97dd99b404d177890f06a8f0fc8e5ed0333fb2ebb6684360709066e8984f59461071384600001516109a2565b610720856020015161087b565b604080516020810194909452830191909152606082015260800161046f565b6000807f000000000000000000000000000000000000000000000000000000000000000061076c8461083d565b60405161190160f01b60208201526022810192909252604282015260620161046f565b6000807f3c36a06e1d288b0f94f565588317a46ad11bc3c96992109f9a2365a2737259a76107c0846000015161048e565b60208086015180519082012060405161046f949392019283526020830191909152604082015260600190565b6000807fe8d3d963b33868fb116316bc3fd55e8f49123f30e4418f71e140d54b7cd3b2b98360000151846020015160405160200161046f939291909283526020830191909152604082015260600190565b6000807f08c69a206c06f5334b35ceb1186181a713b21aff02cf66285f375084fbef2eb861086e84600001516105c1565b61072085602001516107ec565b6000606060005b835181101561062957816108ae8583815181106108a1576108a1611cb9565b602002602001015161078f565b6040516020016108bf929190611db9565b604051602081830303815290604052915080806108db90611d70565b915050610882565b6000606060005b8351811015610629578161091685838151811061090957610909611cb9565b602002602001015161040e565b604051602001610927929190611db9565b6040516020818303038152906040529150808061094390611d70565b9150506108ea565b80516000908161095a82610975565b9050600061096c82866020015161103c565b95945050505050565b6000807f000000000000000000000000000000000000000000000000000000000000000061076c8461048e565b6000807fb16dfdb3b8fa033fe30ac976cd4a50ad256b6811c80d90fcd0b323eec190047d8360000151846020015185604001518051906020012060405160200161046f94939291909384526001600160a01b039290921660208401526040830152606082015260800190565b60008082610a1b8561048e565b60405161190160f01b60208201526022810192909252604282015260620160408051808303601f190181529190528051602090910120949350505050565b600080610a69836000015161073f565b90506000610a7b82856020015161103c565b949350505050565b815160009081610a938285610a0e565b90506000610aa582876020015161103c565b9695505050505050565b6000610ac3610abd84611ddb565b83610a83565b90506000610acf611113565b9050806001600160a01b0316826001600160a01b031614610b3d5760405162461bcd60e51b815260206004820152602260248201527f5265766f636174696f6e456e666f726365723a696e76616c69642d7265766f6b60448201526132b960f11b6064820152608401610693565b6000610b4b61023986611ddb565b6000908152600160208190526040909120805460ff191690911790555050505050565b60208082015182516001600160a01b038516600090815280845260408082208483529094529290922054909190610ba6906001611de7565b8114610c005760405162461bcd60e51b815260206004820152602360248201527f44656c6567617461626c65436f72653a6e6f6e6365322d6f75742d6f662d6f726044820152623232b960e91b6064820152608401610693565b6001600160a01b03909316600090815260208181526040808320938352929052209190915550565b6000805b83811015611034576000858583818110610c4857610c48611cb9565b9050602002810190610c5a9190611ccf565b610c6390611dff565b9050600080826020015151600003610c7b5750849050805b6000805b846020015151811015610f1657600085602001518281518110610ca457610ca4611cb9565b602002602001015190506000610cb98261094b565b905082600003610cca578095508594505b846001600160a01b0316816001600160a01b031614610d3d5760405162461bcd60e51b815260206004820152602960248201527f44656c6567617461626c65436f72653a696e76616c69642d64656c656761746960448201526837b716b9b4b3b732b960b91b6064820152608401610693565b815160208101518514610dac5760405162461bcd60e51b815260206004820152603160248201527f44656c6567617461626c65436f72653a696e76616c69642d617574686f726974604482015270792d64656c65676174696f6e2d6c696e6b60781b6064820152608401610693565b6000610db78461078f565b905060005b8260400151518161ffff161015610ef957600083604001518261ffff1681518110610de957610de9611cb9565b60200260200101516000015190506000816001600160a01b0316635068de4c86604001518561ffff1681518110610e2257610e22611cb9565b6020026020010151602001518e60000151876040518463ffffffff1660e01b8152600401610e5293929190611e37565b6020604051808303816000875af1158015610e71573d6000803e3d6000fd5b505050506040513d601f19601f82011682018060405250810190610e959190611e93565b905080610ee45760405162461bcd60e51b815260206004820152601f60248201527f44656c6567617461626c65436f72653a6361766561742d72656a6563746564006044820152606401610693565b50508080610ef190611ebc565b915050610dbc565b50905195509350829150610f0e905081611d70565b915050610c7f565b50866001600160a01b0316826001600160a01b031614610f785760405162461bcd60e51b815260206004820181905260248201527f44656c6567617461626c65436f72653a696e76616c69642d64656c65676174656044820152606401610693565b835180516001600160a01b03163014610fe55760405162461bcd60e51b815260206004820152602960248201527f44656c6567617461626c65436f72653a696e76616c69642d696e766f636174696044820152681bdb8b5d185c99d95d60ba1b6064820152608401610693565b610ffd8160000151826040015183602001518761116f565b96508661101c5760405162461bcd60e51b815260040161069390611edd565b5050505050808061102c90611d70565b915050610c2c565b509392505050565b600080600080845160411461105757600093505050506106dc565b50505060208201516040830151606084015160001a601b81101561108357611080601b82611f1e565b90505b8060ff16601b1415801561109b57508060ff16601c14155b156110ac57600093505050506106dc565b60408051600081526020810180835288905260ff831691810191909152606081018490526080810183905260019060a0016020604051602081039080840390855afa1580156110ff573d6000803e3d6000fd5b5050506020604051035193505050506106dc565b600030330361116957600080368080601f0160208091040260200160405190810160405280939291908181526020018383808284376000920191909152505050503601516001600160a01b0316915061116c9050565b50335b90565b6000808483604051602001611185929190611f43565b60405160208183030381529060405290506060866001600160a01b031685836040516111b19190611f7a565b60006040518083038160008787f1925050503d80600081146111ef576040519150601f19603f3d011682016040523d82523d6000602084013e6111f4565b606091505b509093509050826112455780511561122d5760006112118261124f565b90508060405162461bcd60e51b81526004016106939190611f8c565b60405162461bcd60e51b815260040161069390611edd565b5050949350505050565b80516060906044811015611273575050604080516020810190915260008152919050565b6004830180516003198301825290936112959083810160200190602401611f9f565b93525090919050565b634e487b7160e01b600052604160045260246000fd5b604080519081016001600160401b03811182821017156112d6576112d661129e565b60405290565b604051606081016001600160401b03811182821017156112d6576112d661129e565b604051601f8201601f191681016001600160401b03811182821017156113265761132661129e565b604052919050565b80356001600160a01b038116811461134557600080fd5b919050565b60006001600160401b038211156113635761136361129e565b50601f01601f191660200190565b600082601f83011261138257600080fd5b81356113956113908261134a565b6112fe565b8181528460208386010111156113aa57600080fd5b816020850160208301376000918101602001919091529392505050565b6000604082840312156113d957600080fd5b6113e16112b4565b90506113ec8261132e565b815260208201356001600160401b0381111561140757600080fd5b61141384828501611371565b60208301525092915050565b60006020828403121561143157600080fd5b81356001600160401b0381111561144757600080fd5b610a7b848285016113c7565b60006001600160401b0382111561146c5761146c61129e565b5060051b60200190565b600082601f83011261148757600080fd5b8135602061149761139083611453565b82815260059290921b840181019181810190868411156114b657600080fd5b8286015b848110156114f55780356001600160401b038111156114d95760008081fd5b6114e78986838b01016113c7565b8452509183019183016114ba565b509695505050505050565b60006060828403121561151257600080fd5b61151a6112dc565b90506115258261132e565b81526020820135602082015260408201356001600160401b0381111561154a57600080fd5b61155684828501611476565b60408301525092915050565b60006020828403121561157457600080fd5b81356001600160401b0381111561158a57600080fd5b610a7b84828501611500565b60008083601f8401126115a857600080fd5b5081356001600160401b038111156115bf57600080fd5b6020830191508360208260051b85010111156115da57600080fd5b9250929050565b600080602083850312156115f457600080fd5b82356001600160401b0381111561160a57600080fd5b61161685828601611596565b90969095509350505050565b60006060828403121561163457600080fd5b61163c6112dc565b90506116478261132e565b81526020820135602082015260408201356001600160401b0381111561166c57600080fd5b61155684828501611371565b60006040828403121561168a57600080fd5b6116926112b4565b905081356001600160401b03808211156116ab57600080fd5b6116b785838601611500565b835260208401359150808211156116cd57600080fd5b5061141384828501611371565b600082601f8301126116eb57600080fd5b813560206116fb61139083611453565b82815260059290921b8401810191818101908684111561171a57600080fd5b8286015b848110156114f55780356001600160401b0381111561173d5760008081fd5b61174b8986838b0101611678565b84525091830191830161171e565b60006040828403121561176b57600080fd5b6117736112b4565b905081356001600160401b038082111561178c57600080fd5b61179885838601611622565b835260208401359150808211156117ae57600080fd5b50611413848285016116da565b600082601f8301126117cc57600080fd5b813560206117dc61139083611453565b82815260059290921b840181019181810190868411156117fb57600080fd5b8286015b848110156114f55780356001600160401b0381111561181e5760008081fd5b61182c8986838b0101611759565b8452509183019183016117ff565b60006020828403121561184c57600080fd5b81356001600160401b0381111561186257600080fd5b610a7b848285016117bb565b6000806000806060858703121561188457600080fd5b84356001600160401b038082111561189b57600080fd5b818701915087601f8301126118af57600080fd5b8135818111156118be57600080fd5b8860208285010111156118d057600080fd5b6020928301965094509086013590808211156118eb57600080fd5b508501606081880312156118fe57600080fd5b9396929550929360400135925050565b60006020828403121561192057600080fd5b81356001600160401b0381111561193657600080fd5b610a7b84828501611678565b60006020828403121561195457600080fd5b81356001600160401b0381111561196a57600080fd5b610a7b84828501611759565b60006040828403121561198857600080fd5b6119906112b4565b9050813581526020820135602082015292915050565b6000606082840312156119b857600080fd5b6119c06112b4565b905081356001600160401b038111156119d857600080fd5b6119e4848285016117bb565b8252506119f48360208401611976565b602082015292915050565b600060208284031215611a1157600080fd5b81356001600160401b03811115611a2757600080fd5b610a7b848285016119a6565b600060408284031215611a4557600080fd5b6106d98383611976565b600060208284031215611a6157600080fd5b81356001600160401b03811115611a7757600080fd5b610a7b848285016116da565b600060208284031215611a9557600080fd5b81356001600160401b03811115611aab57600080fd5b610a7b84828501611476565b60008060408385031215611aca57600080fd5b611ad38361132e565b946020939093013593505050565b600060208284031215611af357600080fd5b81356001600160401b03811115611b0957600080fd5b610a7b84828501611622565b60008060408385031215611b2857600080fd5b82356001600160401b03811115611b3e57600080fd5b611b4a85828601611500565b95602094909401359450505050565b600060408284031215611b6b57600080fd5b611b736112b4565b905081356001600160401b0380821115611b8c57600080fd5b6116b7858386016119a6565b600060208284031215611baa57600080fd5b81356001600160401b03811115611bc057600080fd5b610a7b84828501611b59565b60008060008060808587031215611be257600080fd5b84356001600160401b0380821115611bf957600080fd5b611c0588838901611371565b95506020870135915080821115611c1b57600080fd5b50611c2887828801611371565b93505060408501359150611c3e6060860161132e565b905092959194509250565b60008060408385031215611c5c57600080fd5b82356001600160401b03811115611c7257600080fd5b611b4a85828601611678565b60008060408385031215611c9157600080fd5b82356001600160401b03811115611ca757600080fd5b830160408186031215611ad357600080fd5b634e487b7160e01b600052603260045260246000fd5b60008235603e19833603018112611ce557600080fd5b9190910192915050565b60006106dc3683611b59565b60008235605e19833603018112611ce557600080fd5b6000808335601e19843603018112611d2857600080fd5b8301803591506001600160401b03821115611d4257600080fd5b6020019150600581901b36038213156115da57600080fd5b634e487b7160e01b600052601160045260246000fd5b600060018201611d8257611d82611d5a565b5060010190565b60005b83811015611da4578181015183820152602001611d8c565b83811115611db3576000848401525b50505050565b60008351611dcb818460208801611d89565b9190910191825250602001919050565b60006106dc3683611678565b60008219821115611dfa57611dfa611d5a565b500190565b60006106dc3683611759565b60008151808452611e23816020860160208601611d89565b601f01601f19169290920160200192915050565b606081526000611e4a6060830186611e0b565b828103602084015260018060a01b03855116815260208501516020820152604085015160606040830152611e816060830182611e0b565b92505050826040830152949350505050565b600060208284031215611ea557600080fd5b81518015158114611eb557600080fd5b9392505050565b600061ffff808316818103611ed357611ed3611d5a565b6001019392505050565b60208082526021908201527f44656c6567617461626c65436f72653a3a657865637574696f6e2d6661696c656040820152601960fa1b606082015260800190565b600060ff821660ff84168060ff03821115611f3b57611f3b611d5a565b019392505050565b60008351611f55818460208801611d89565b60609390931b6bffffffffffffffffffffffff19169190920190815260140192915050565b60008251611ce5818460208701611d89565b6020815260006106d96020830184611e0b565b600060208284031215611fb157600080fd5b81516001600160401b03811115611fc757600080fd5b8201601f81018413611fd857600080fd5b8051611fe66113908261134a565b818152856020838501011115611ffb57600080fd5b61096c826020830160208601611d8956fea26469706673582212206c4b053f01f352220609f4b7b7348a6648def37bdb0a2f2f30681040a928937c64736f6c634300080f0033",
  "linkReferences": {},
  "deployedLinkReferences": {}
}